:020000040000FA
:060000000A128A110C280F
:10000800FE00030EF1000A08F2000A128A110629FE
:100018000A128A110F2883132A30FD000130FE00CE
:100028009830FF00203084000A128A117E210A12BB
:100038008A11F601F701F801F901FA0183010A12A0
:100048008A114329F5008C28C330831203139F05B6
:100058002130F300F30B2E28BD28831203131F0849
:10006800C33904389F002C28831203131F08C3398F
:1000780008389F002C28831203131F08C3390C3833
:100088009F002C28831203131F08C33910389F00C0
:100098002C28831203131F08C33914389F002C28F7
:1000A800831203131F08C33918389F002C288312A2
:1000B80003131F08C3391C389F002C28831203130D
:1000C8001F08C33920389F002C28831203131F08E8
:1000D800C33924389F002C28831203131F08C339FF
:1000E80028389F002C28831203131F08C3392C3883
:1000F8009F002C28831203131F08C33930389F0030
:100108002C28831203131F08C33934389F002C2866
:100118007508F300F4017408003A03199428852837
:100128007308003A03192828013A03193128033AB9
:1001380003193828013A03193F28073A03194628B2
:10014800013A03194D28033A03195428013A0319AF
:100158005B280F3A03196228013A03196928033A00
:1001680003197028013A03197728073A03197E28DA
:1001780085280800831603130F178F160F160F1400
:1001880083160317890140308800831603138501FD
:10019800033086008701880102308900811303300B
:1001A80095008312031385018801033086008701B7
:1001B8008901831603139F131F129F1283120313BF
:1001C8001F083F3980389F001F08C33918389F001F
:1001D8002130F300F30BEE28831203131F148B173F
:1001E8008B160B118B1503308316031396000B1017
:1001F80081128111011581140114EC30831203134B
:10020800810008000B1D09290A291C2983120313E0
:10021800881C0F29102915297A08870008148810C6
:1002280019297908870088140810EB3081000B1110
:100238000B1C1F292029312983120313061825298D
:1002480026292A290130F0007008850786182D29EB
:100258002E293029013085020B10831203130C1F3D
:10026800362937293C291E08F0007008F8000C13BD
:1002780072088A00710E8300FE0E7E0E09000A12B3
:100288008A11BE200A128A11831203139F149F1821
:100298004E294F29582906300A128A1126200A1297
:1002A8008A11831203139F140530AA002A08F70045
:1002B8000630AA002A08F60005300A128A118D2194
:1002C8000A128A1183120313AA002A08FA000630B8
:1002D8000A128A118D210A128A1183120313AA00A5
:1002E8002A08F9004B290A128A110C287E088A006C
:1002F8007F0882000A128A117A210A128A11800064
:10030800840A04087D0603190034FF0A0319FE0A4B
:100318007E29F4007408203E840083130008F3004B
:100328007308F500750808003F3406345B344F3411
:0C03380066346D347D3407347F34673444
:04400E00C420FF3F8C
:00000001FF
