:020000040000FA
:060000000A128A110C280F
:10000800FE00030EF1000A08F2000A128A111528F0
:100018000A128A110F28F301F40183010A128A11C6
:1000280049280B1D182819282D280230831203137C
:100038000806031D2028212826287408870008148C
:1000480088102A287308870088140810EC3081006B
:100058000B110B1C30283128422883120313061871
:10006800362837283B280130F000700885078618A5
:100078003E283F284128013085020B1072088A006B
:10008800710E8300FE0E7E0E09000A128A110C28DA
:04400E00C420FF3F8C
:00000001FF
