:020000040000FA
:060000000A128A110C280F
:10000800FE00030EF1000A08F2000A128A11F6280F
:100018000A128A110F28F601F701F80183010A1262
:100028008A113529F5007C28C330831203139F05F4
:100038002130F300F30B1E28AD28831203131F0889
:10004800C33904389F001C28831203131F08C339BF
:1000580008389F001C28831203131F08C3390C3863
:100068009F001C28831203131F08C33910389F00F0
:100078001C28831203131F08C33914389F001C2837
:10008800831203131F08C33918389F001C288312D2
:1000980003131F08C3391C389F001C28831203133D
:1000A8001F08C33920389F001C28831203131F0818
:1000B800C33924389F001C28831203131F08C3392F
:1000C80028389F001C28831203131F08C3392C38B3
:1000D8009F001C28831203131F08C33930389F0060
:1000E8001C28831203131F08C33934389F001C28A7
:1000F8007508F300F4017408003A03198428752878
:100108007308003A03191828013A03192128033AF9
:1001180003192828013A03192F28073A0319362802
:10012800013A03193D28033A03194428013A0319EF
:100138004B280F3A03195228013A03195928033A50
:1001480003196028013A03196728073A03196E282A
:1001580075280800831603130F178F160F160F1430
:10016800831603178901403088008316031385011D
:10017800033086008701880102308900811303302B
:1001880095008312031385018801033086008701D7
:100198008901831603139F131F129F1283120313DF
:1001A8001F083F3980389F001F08C33918389F003F
:1001B8002130F300F30BDE28831203131F148B176F
:1001C8008B160B118B1503308316031396000B1037
:1001D80081128111011581140114EC30831203136B
:1001E800810008000B1DF928FA280E290230831215
:1001F80003130806031D0129022907297808870027
:10020800081488100B297708870088140810EC3028
:1002180081000B110B1C11291229232983120313A6
:100228000618172918291C290130F00070088507BD
:1002380086181F2920292229013085020B108312D4
:1002480003130C1F282929292E291E08F0007008DD
:10025800F6000C1372088A00710E8300FE0E7E0EE3
:1002680009000A128A11AE200A128A118312031396
:100278009F149F18402941293D2906300A128A11E6
:1002880016200A128A11831203139F143D290A1299
:040298008A110C2893
:04400E00C420FF3F8C
:00000001FF
