:020000040000FA
:060000000A128A110C280F
:10000800FE00030EF1000A08F2000A128A11C02845
:100018000A128A110F2883133030FD000130FE00C8
:100028002830FF00203084000A128A1106210A12A3
:100038008A11F801F901FA01FB01FC0183010A1296
:100048008A117628831603130F178F160F120F14B1
:10005800831603178901403088008316031385012E
:10006800033086008701880102308900811303303C
:1000780095008312031385018801033086008701E8
:100088008901831603139F131F129F1283120313F0
:100098001F083F3980389F001F08C33918389F0050
:1000A8001030F300F30B56280000831203131F14BB
:1000B8008B178B160B110B17831603130C17831250
:1000C80003130C138B1503308316031396000B10C0
:1000D80081128111011581140114EC30831203136C
:1000E800810008000A128A1126200A128A11831236
:1000F80003139F140A128A1115210A128A118312F6
:10010800031309107A080F39F6007608F9007A08FF
:10011800F60004300310F60CFF3E031D8E28760807
:100128000F39F7007708F80079080A128A11382180
:100138000A128A11F6007608FC0078080A128A1159
:1001480038210A128A11F6007608FB007A08831211
:10015800031305020318B128B2287E280914343085
:10016800F700F130F600F60BB728F70BB728BC28D4
:100178007E280A128A110C280B1DC328C428DB28E4
:100188008312031388010919CA28CB28D0287C08B0
:10019800870008140915D828091DD328D428D82879
:1001A8007B08870088140911EB3081000B110B1CA8
:1001B800DE28DF28F028831203130618E428E52830
:1001C800E9280130F000700885078618EC28ED282A
:1001D800EF28013085020B10831203130C1FF5283A
:1001E800F628FB281E08F0007008FA000C137208A5
:1001F8008A00710E8300FE0E7E0E09007E088A00BA
:100208007F0882000A128A1102210A128A118000CC
:10021800840A04087D0603190034FF0A0319FE0A3C
:100228000629831203139F181A291B2927291F0837
:10023800C33918389F001030F300F30B2129000050
:10024800831203139F1408003F3406345B344F3481
:1002580066346D347D3407347F346F3477347C34BE
:1002680039345E3479347134F4007408203E8400E3
:0E02780083130008F3007308F50075080800F2
:04400E00C430FF3F7C
:00000001FF
