:020000040000FA
:060000000A128A110C280F
:10000800FE00030EF1000A08F2000A128A115929AB
:100018000A128A110F2883133030FD000130FE00C8
:10002800AE30FF00203084000A128A119F210A1284
:100038008A11F801F901FA01FB01FC0183010A1296
:100048008A110F29F5008D28C330831203139F05E9
:100058001030F300F30B2E280000BE288312031380
:100068001F08C33904389F002C28831203131F0864
:10007800C33908389F002C28831203131F08C3397B
:100088000C389F002C28831203131F08C33910381B
:100098009F002C28831203131F08C33914389F00AC
:1000A8002C28831203131F08C33918389F002C28E3
:1000B800831203131F08C3391C389F002C2883128E
:1000C80003131F08C33920389F002C2883120313F9
:1000D8001F08C33924389F002C28831203131F08D4
:1000E800C33928389F002C28831203131F08C339EB
:1000F8002C389F002C28831203131F08C33930386B
:100108009F002C28831203131F08C33934389F001B
:100118002C287508F300F4017408003A031995288F
:1001280086287308003A03192828013A0319322847
:10013800033A03193928013A03194028073A0319E1
:100148004728013A03194E28033A03195528013A5A
:1001580003195C280F3A03196328013A03196A281E
:10016800033A03197128013A03197828073A031941
:100178007F2886280800831603130F178F160F127F
:100188000F14831603178901403088008316031360
:1001980085010330860087018801023089008113B8
:1001A800033095008312031385018801033086000C
:1001B80087018901831603139F131F129F1283124D
:1001C80003131F083F3980389F001F08C3391838A8
:1001D8009F001030F300F30BEF2800008312031385
:1001E8001F148B178B160B110B17831603130C1781
:1001F800831203130C138B15033083160313960015
:100208000B1081128111011581140114EC30831235
:100218000313810008000A128A11BF200A128A11EA
:10022800831203139F14831203139F181C291D297B
:10023800262906300A128A1126200A128A118312E8
:1002480003139F1409107A080F39F6007608F9008D
:100258007A08F039F6007608F80079080A128A1147
:10026800BE210A128A11F6007608FC0078080A12E4
:100278008A11BE210A128A11F6007608FB007A0854
:10028800831203130506031D4A294B29172909144C
:100298004130F700EE30F600F60B5029F70B5029E5
:1002A800000017290A128A110C280B1D5C295D29E8
:1002B8007429831203138801091963296429692998
:1002C8007C088700081409157129091D6C296D29F6
:1002D80071297B08870088140911EB3081000B1104
:1002E8000B1C7729782989298312031306187D297D
:1002F8007E2982290130F000700885078618852933
:1003080086298829013085020B10831203130C1FDC
:100318008E298F2994291E08F0007008FA000C1302
:1003280072088A00710E8300FE0E7E0E09007E0898
:100338008A007F0882000A128A119B210A128A11F8
:100348008000840A04087D0603190034FF0A031993
:10035800FE0A9F293F3406345B344F3466346D34CB
:100368007D3407347F346F3477347C3439345E34E9
:1003780079347134F4007408203E84008313000833
:0A038800F3007308F5007508080083
:04400E00C430FF3F7C
:00000001FF
